{"project/contracts/ProductVerification.sol":{"ProductVerification":{"abi":[{"anonymous":false,"inputs":[{"indexed":true,"internalType":"string","name":"serialNumber","type":"string"},{"indexed":false,"internalType":"string","name":"productHash","type":"string"},{"indexed":true,"internalType":"address","name":"company","type":"address"},{"indexed":false,"internalType":"uint256","name":"timestamp","type":"uint256"}],"name":"ProductAdded","type":"event"},{"inputs":[{"internalType":"string","name":"_serialNumber","type":"string"},{"internalType":"string","name":"_productHash","type":"string"}],"name":"registerProduct","outputs":[],"stateMutability":"nonpayable","type":"function"},{"inputs":[{"internalType":"string","name":"_serialNumber","type":"string"}],"name":"verifyProduct","outputs":[{"internalType":"bool","name":"isRegistered","type":"bool"},{"internalType":"string","name":"productHash","type":"string"},{"internalType":"address","name":"company","type":"address"},{"internalType":"uint256","name":"timestamp","type":"uint256"}],"stateMutability":"view","type":"function"}],"evm":{"bytecode":{"linkReferences":{},"object":"6080604052348015600e575f5ffd5b50610c4a8061001c5f395ff3fe608060405234801561000f575f5ffd5b5060043610610034575f3560e01c80638fbd0dcf1461003857806392efc45314610054575b5f5ffd5b610052600480360381019061004d91906105fc565b610087565b005b61006e60048036038101906100699190610672565b610257565b60405161007e949392919061078a565b60405180910390f35b5f82604051610096919061080e565b90815260200160405180910390206004015f9054906101000a900460ff16156100f4576040517f08c379a00000000000000000000000000000000000000000000000000000000081526004016100eb90610894565b60405180910390fd5b6040518060a001604052808381526020018281526020013373ffffffffffffffffffffffffffffffffffffffff168152602001428152602001600115158152505f83604051610143919061080e565b90815260200160405180910390205f820151815f0190816101649190610aaf565b50602082015181600101908161017a9190610aaf565b506040820151816002015f6101000a81548173ffffffffffffffffffffffffffffffffffffffff021916908373ffffffffffffffffffffffffffffffffffffffff160217905550606082015181600301556080820151816004015f6101000a81548160ff0219169083151502179055509050503373ffffffffffffffffffffffffffffffffffffffff1682604051610212919061080e565b60405180910390207fd7c8bf9ca0f3d69b7891b22bd4a7edd66f9996feba8906d12a5e86583dd35de2834260405161024b929190610b7e565b60405180910390a35050565b5f60605f5f5f8560405161026b919061080e565b90815260200160405180910390206004015f9054906101000a900460ff166102c8576040517f08c379a00000000000000000000000000000000000000000000000000000000081526004016102bf90610bf6565b60405180910390fd5b5f5f866040516102d8919061080e565b90815260200160405180910390206040518060a00160405290815f82018054610300906108df565b80601f016020809104026020016040519081016040528092919081815260200182805461032c906108df565b80156103775780601f1061034e57610100808354040283529160200191610377565b820191905f5260205f20905b81548152906001019060200180831161035a57829003601f168201915b50505050508152602001600182018054610390906108df565b80601f01602080910402602001604051908101604052809291908181526020018280546103bc906108df565b80156104075780601f106103de57610100808354040283529160200191610407565b820191905f5260205f20905b8154815290600101906020018083116103ea57829003601f168201915b50505050508152602001600282015f9054906101000a900473ffffffffffffffffffffffffffffffffffffffff1673ffffffffffffffffffffffffffffffffffffffff1673ffffffffffffffffffffffffffffffffffffffff16815260200160038201548152602001600482015f9054906101000a900460ff161515151581525050905080608001518160200151826040015183606001519450945094509450509193509193565b5f604051905090565b5f5ffd5b5f5ffd5b5f5ffd5b5f5ffd5b5f601f19601f8301169050919050565b7f4e487b71000000000000000000000000000000000000000000000000000000005f52604160045260245ffd5b61050e826104c8565b810181811067ffffffffffffffff8211171561052d5761052c6104d8565b5b80604052505050565b5f61053f6104af565b905061054b8282610505565b919050565b5f67ffffffffffffffff82111561056a576105696104d8565b5b610573826104c8565b9050602081019050919050565b828183375f83830152505050565b5f6105a061059b84610550565b610536565b9050828152602081018484840111156105bc576105bb6104c4565b5b6105c7848285610580565b509392505050565b5f82601f8301126105e3576105e26104c0565b5b81356105f384826020860161058e565b91505092915050565b5f5f60408385031215610612576106116104b8565b5b5f83013567ffffffffffffffff81111561062f5761062e6104bc565b5b61063b858286016105cf565b925050602083013567ffffffffffffffff81111561065c5761065b6104bc565b5b610668858286016105cf565b9150509250929050565b5f60208284031215610687576106866104b8565b5b5f82013567ffffffffffffffff8111156106a4576106a36104bc565b5b6106b0848285016105cf565b91505092915050565b5f8115159050919050565b6106cd816106b9565b82525050565b5f81519050919050565b5f82825260208201905092915050565b8281835e5f83830152505050565b5f610705826106d3565b61070f81856106dd565b935061071f8185602086016106ed565b610728816104c8565b840191505092915050565b5f73ffffffffffffffffffffffffffffffffffffffff82169050919050565b5f61075c82610733565b9050919050565b61076c81610752565b82525050565b5f819050919050565b61078481610772565b82525050565b5f60808201905061079d5f8301876106c4565b81810360208301526107af81866106fb565b90506107be6040830185610763565b6107cb606083018461077b565b95945050505050565b5f81905092915050565b5f6107e8826106d3565b6107f281856107d4565b93506108028185602086016106ed565b80840191505092915050565b5f61081982846107de565b915081905092915050565b7f50726f647563742073657269616c206e756d62657220616c72656164792072655f8201527f67697374657265642e0000000000000000000000000000000000000000000000602082015250565b5f61087e6029836106dd565b915061088982610824565b604082019050919050565b5f6020820190508181035f8301526108ab81610872565b9050919050565b7f4e487b71000000000000000000000000000000000000000000000000000000005f52602260045260245ffd5b5f60028204905060018216806108f657607f821691505b602082108103610909576109086108b2565b5b50919050565b5f819050815f5260205f209050919050565b5f6020601f8301049050919050565b5f82821b905092915050565b5f6008830261096b7fffffffffffffffffffffffffffffffffffffffffffffffffffffffffffffffff82610930565b6109758683610930565b95508019841693508086168417925050509392505050565b5f819050919050565b5f6109b06109ab6109a684610772565b61098d565b610772565b9050919050565b5f819050919050565b6109c983610996565b6109dd6109d5826109b7565b84845461093c565b825550505050565b5f5f905090565b6109f46109e5565b6109ff8184846109c0565b505050565b5b81811015610a2257610a175f826109ec565b600181019050610a05565b5050565b601f821115610a6757610a388161090f565b610a4184610921565b81016020851015610a50578190505b610a64610a5c85610921565b830182610a04565b50505b505050565b5f82821c905092915050565b5f610a875f1984600802610a6c565b1980831691505092915050565b5f610a9f8383610a78565b9150826002028217905092915050565b610ab8826106d3565b67ffffffffffffffff811115610ad157610ad06104d8565b5b610adb82546108df565b610ae6828285610a26565b5f60209050601f831160018114610b17575f8415610b05578287015190505b610b0f8582610a94565b865550610b76565b601f198416610b258661090f565b5f5b82811015610b4c57848901518255600182019150602085019450602081019050610b27565b86831015610b695784890151610b65601f891682610a78565b8355505b6001600288020188555050505b505050505050565b5f6040820190508181035f830152610b9681856106fb565b9050610ba5602083018461077b565b9392505050565b7f50726f64756374206e6f7420666f756e642e00000000000000000000000000005f82015250565b5f610be06012836106dd565b9150610beb82610bac565b602082019050919050565b5f6020820190508181035f830152610c0d81610bd4565b905091905056fea264697066735822122010f57fba72702a903a6ccc63b298c90249cc5fc7af12692d800ae40215f69d2264736f6c634300081c0033","opcodes":"PUSH1 0x80 PUSH1 0x40 MSTORE CALLVALUE DUP1 ISZERO PUSH1 0xE JUMPI PUSH0 PUSH0 REVERT JUMPDEST POP PUSH2 0xC4A DUP1 PUSH2 0x1C PUSH0 CODECOPY PUSH0 RETURN INVALID PUSH1 0x80 PUSH1 0x40 MSTORE CALLVALUE DUP1 ISZERO PUSH2 0xF JUMPI PUSH0 PUSH0 REVERT JUMPDEST POP PUSH1 0x4 CALLDATASIZE LT PUSH2 0x34 JUMPI PUSH0 CALLDATALOAD PUSH1 0xE0 SHR DUP1 PUSH4 0x8FBD0DCF EQ PUSH2 0x38 JUMPI DUP1 PUSH4 0x92EFC453 EQ PUSH2 0x54 JUMPI JUMPDEST PUSH0 PUSH0 REVERT JUMPDEST PUSH2 0x52 PUSH1 0x4 DUP1 CALLDATASIZE SUB DUP2 ADD SWAP1 PUSH2 0x4D SWAP2 SWAP1 PUSH2 0x5FC JUMP JUMPDEST PUSH2 0x87 JUMP JUMPDEST STOP JUMPDEST PUSH2 0x6E PUSH1 0x4 DUP1 CALLDATASIZE SUB DUP2 ADD SWAP1 PUSH2 0x69 SWAP2 SWAP1 PUSH2 0x672 JUMP JUMPDEST PUSH2 0x257 JUMP JUMPDEST PUSH1 0x40 MLOAD PUSH2 0x7E SWAP5 SWAP4 SWAP3 SWAP2 SWAP1 PUSH2 0x78A JUMP JUMPDEST PUSH1 0x40 MLOAD DUP1 SWAP2 SUB SWAP1 RETURN JUMPDEST PUSH0 DUP3 PUSH1 0x40 MLOAD PUSH2 0x96 SWAP2 SWAP1 PUSH2 0x80E JUMP JUMPDEST SWAP1 DUP2 MSTORE PUSH1 0x20 ADD PUSH1 0x40 MLOAD DUP1 SWAP2 SUB SWAP1 KECCAK256 PUSH1 0x4 ADD PUSH0 SWAP1 SLOAD SWAP1 PUSH2 0x100 EXP SWAP1 DIV PUSH1 0xFF AND ISZERO PUSH2 0xF4 JUMPI PUSH1 0x40 MLOAD PUSH32 0x8C379A000000000000000000000000000000000000000000000000000000000 DUP2 MSTORE PUSH1 0x4 ADD PUSH2 0xEB SWAP1 PUSH2 0x894 JUMP JUMPDEST PUSH1 0x40 MLOAD DUP1 SWAP2 SUB SWAP1 REVERT JUMPDEST PUSH1 0x40 MLOAD DUP1 PUSH1 0xA0 ADD PUSH1 0x40 MSTORE DUP1 DUP4 DUP2 MSTORE PUSH1 0x20 ADD DUP3 DUP2 MSTORE PUSH1 0x20 ADD CALLER PUSH20 0xFFFFFFFFFFFFFFFFFFFFFFFFFFFFFFFFFFFFFFFF AND DUP2 MSTORE PUSH1 0x20 ADD TIMESTAMP DUP2 MSTORE PUSH1 0x20 ADD PUSH1 0x1 ISZERO ISZERO DUP2 MSTORE POP PUSH0 DUP4 PUSH1 0x40 MLOAD PUSH2 0x143 SWAP2 SWAP1 PUSH2 0x80E JUMP JUMPDEST SWAP1 DUP2 MSTORE PUSH1 0x20 ADD PUSH1 0x40 MLOAD DUP1 SWAP2 SUB SWAP1 KECCAK256 PUSH0 DUP3 ADD MLOAD DUP2 PUSH0 ADD SWAP1 DUP2 PUSH2 0x164 SWAP2 SWAP1 PUSH2 0xAAF JUMP JUMPDEST POP PUSH1 0x20 DUP3 ADD MLOAD DUP2 PUSH1 0x1 ADD SWAP1 DUP2 PUSH2 0x17A SWAP2 SWAP1 PUSH2 0xAAF JUMP JUMPDEST POP PUSH1 0x40 DUP3 ADD MLOAD DUP2 PUSH1 0x2 ADD PUSH0 PUSH2 0x100 EXP DUP2 SLOAD DUP2 PUSH20 0xFFFFFFFFFFFFFFFFFFFFFFFFFFFFFFFFFFFFFFFF MUL NOT AND SWAP1 DUP4 PUSH20 0xFFFFFFFFFFFFFFFFFFFFFFFFFFFFFFFFFFFFFFFF AND MUL OR SWAP1 SSTORE POP PUSH1 0x60 DUP3 ADD MLOAD DUP2 PUSH1 0x3 ADD SSTORE PUSH1 0x80 DUP3 ADD MLOAD DUP2 PUSH1 0x4 ADD PUSH0 PUSH2 0x100 EXP DUP2 SLOAD DUP2 PUSH1 0xFF MUL NOT AND SWAP1 DUP4 ISZERO ISZERO MUL OR SWAP1 SSTORE POP SWAP1 POP POP CALLER PUSH20 0xFFFFFFFFFFFFFFFFFFFFFFFFFFFFFFFFFFFFFFFF AND DUP3 PUSH1 0x40 MLOAD PUSH2 0x212 SWAP2 SWAP1 PUSH2 0x80E JUMP JUMPDEST PUSH1 0x40 MLOAD DUP1 SWAP2 SUB SWAP1 KECCAK256 PUSH32 0xD7C8BF9CA0F3D69B7891B22BD4A7EDD66F9996FEBA8906D12A5E86583DD35DE2 DUP4 TIMESTAMP PUSH1 0x40 MLOAD PUSH2 0x24B SWAP3 SWAP2 SWAP1 PUSH2 0xB7E JUMP JUMPDEST PUSH1 0x40 MLOAD DUP1 SWAP2 SUB SWAP1 LOG3 POP POP JUMP JUMPDEST PUSH0 PUSH1 0x60 PUSH0 PUSH0 PUSH0 DUP6 PUSH1 0x40 MLOAD PUSH2 0x26B SWAP2 SWAP1 PUSH2 0x80E JUMP JUMPDEST SWAP1 DUP2 MSTORE PUSH1 0x20 ADD PUSH1 0x40 MLOAD DUP1 SWAP2 SUB SWAP1 KECCAK256 PUSH1 0x4 ADD PUSH0 SWAP1 SLOAD SWAP1 PUSH2 0x100 EXP SWAP1 DIV PUSH1 0xFF AND PUSH2 0x2C8 JUMPI PUSH1 0x40 MLOAD PUSH32 0x8C379A000000000000000000000000000000000000000000000000000000000 DUP2 MSTORE PUSH1 0x4 ADD PUSH2 0x2BF SWAP1 PUSH2 0xBF6 JUMP JUMPDEST PUSH1 0x40 MLOAD DUP1 SWAP2 SUB SWAP1 REVERT JUMPDEST PUSH0 PUSH0 DUP7 PUSH1 0x40 MLOAD PUSH2 0x2D8 SWAP2 SWAP1 PUSH2 0x80E JUMP JUMPDEST SWAP1 DUP2 MSTORE PUSH1 0x20 ADD PUSH1 0x40 MLOAD DUP1 SWAP2 SUB SWAP1 KECCAK256 PUSH1 0x40 MLOAD DUP1 PUSH1 0xA0 ADD PUSH1 0x40 MSTORE SWAP1 DUP2 PUSH0 DUP3 ADD DUP1 SLOAD PUSH2 0x300 SWAP1 PUSH2 0x8DF JUMP JUMPDEST DUP1 PUSH1 0x1F ADD PUSH1 0x20 DUP1 SWAP2 DIV MUL PUSH1 0x20 ADD PUSH1 0x40 MLOAD SWAP1 DUP2 ADD PUSH1 0x40 MSTORE DUP1 SWAP3 SWAP2 SWAP1 DUP2 DUP2 MSTORE PUSH1 0x20 ADD DUP3 DUP1 SLOAD PUSH2 0x32C SWAP1 PUSH2 0x8DF JUMP JUMPDEST DUP1 ISZERO PUSH2 0x377 JUMPI DUP1 PUSH1 0x1F LT PUSH2 0x34E JUMPI PUSH2 0x100 DUP1 DUP4 SLOAD DIV MUL DUP4 MSTORE SWAP2 PUSH1 0x20 ADD SWAP2 PUSH2 0x377 JUMP JUMPDEST DUP3 ADD SWAP2 SWAP1 PUSH0 MSTORE PUSH1 0x20 PUSH0 KECCAK256 SWAP1 JUMPDEST DUP2 SLOAD DUP2 MSTORE SWAP1 PUSH1 0x1 ADD SWAP1 PUSH1 0x20 ADD DUP1 DUP4 GT PUSH2 0x35A JUMPI DUP3 SWAP1 SUB PUSH1 0x1F AND DUP3 ADD SWAP2 JUMPDEST POP POP POP POP POP DUP2 MSTORE PUSH1 0x20 ADD PUSH1 0x1 DUP3 ADD DUP1 SLOAD PUSH2 0x390 SWAP1 PUSH2 0x8DF JUMP JUMPDEST DUP1 PUSH1 0x1F ADD PUSH1 0x20 DUP1 SWAP2 DIV MUL PUSH1 0x20 ADD PUSH1 0x40 MLOAD SWAP1 DUP2 ADD PUSH1 0x40 MSTORE DUP1 SWAP3 SWAP2 SWAP1 DUP2 DUP2 MSTORE PUSH1 0x20 ADD DUP3 DUP1 SLOAD PUSH2 0x3BC SWAP1 PUSH2 0x8DF JUMP JUMPDEST DUP1 ISZERO PUSH2 0x407 JUMPI DUP1 PUSH1 0x1F LT PUSH2 0x3DE JUMPI PUSH2 0x100 DUP1 DUP4 SLOAD DIV MUL DUP4 MSTORE SWAP2 PUSH1 0x20 ADD SWAP2 PUSH2 0x407 JUMP JUMPDEST DUP3 ADD SWAP2 SWAP1 PUSH0 MSTORE PUSH1 0x20 PUSH0 KECCAK256 SWAP1 JUMPDEST DUP2 SLOAD DUP2 MSTORE SWAP1 PUSH1 0x1 ADD SWAP1 PUSH1 0x20 ADD DUP1 DUP4 GT PUSH2 0x3EA JUMPI DUP3 SWAP1 SUB PUSH1 0x1F AND DUP3 ADD SWAP2 JUMPDEST POP POP POP POP POP DUP2 MSTORE PUSH1 0x20 ADD PUSH1 0x2 DUP3 ADD PUSH0 SWAP1 SLOAD SWAP1 PUSH2 0x100 EXP SWAP1 DIV PUSH20 0xFFFFFFFFFFFFFFFFFFFFFFFFFFFFFFFFFFFFFFFF AND PUSH20 0xFFFFFFFFFFFFFFFFFFFFFFFFFFFFFFFFFFFFFFFF AND PUSH20 0xFFFFFFFFFFFFFFFFFFFFFFFFFFFFFFFFFFFFFFFF AND DUP2 MSTORE PUSH1 0x20 ADD PUSH1 0x3 DUP3 ADD SLOAD DUP2 MSTORE PUSH1 0x20 ADD PUSH1 0x4 DUP3 ADD PUSH0 SWAP1 SLOAD SWAP1 PUSH2 0x100 EXP SWAP1 DIV PUSH1 0xFF AND ISZERO ISZERO ISZERO ISZERO DUP2 MSTORE POP POP SWAP1 POP DUP1 PUSH1 0x80 ADD MLOAD DUP2 PUSH1 0x20 ADD MLOAD DUP3 PUSH1 0x40 ADD MLOAD DUP4 PUSH1 0x60 ADD MLOAD SWAP5 POP SWAP5 POP SWAP5 POP SWAP5 POP POP SWAP2 SWAP4 POP SWAP2 SWAP4 JUMP JUMPDEST PUSH0 PUSH1 0x40 MLOAD SWAP1 POP SWAP1 JUMP JUMPDEST PUSH0 PUSH0 REVERT JUMPDEST PUSH0 PUSH0 REVERT JUMPDEST PUSH0 PUSH0 REVERT JUMPDEST PUSH0 PUSH0 REVERT JUMPDEST PUSH0 PUSH1 0x1F NOT PUSH1 0x1F DUP4 ADD AND SWAP1 POP SWAP2 SWAP1 POP JUMP JUMPDEST PUSH32 0x4E487B7100000000000000000000000000000000000000000000000000000000 PUSH0 MSTORE PUSH1 0x41 PUSH1 0x4 MSTORE PUSH1 0x24 PUSH0 REVERT JUMPDEST PUSH2 0x50E DUP3 PUSH2 0x4C8 JUMP JUMPDEST DUP2 ADD DUP2 DUP2 LT PUSH8 0xFFFFFFFFFFFFFFFF DUP3 GT OR ISZERO PUSH2 0x52D JUMPI PUSH2 0x52C PUSH2 0x4D8 JUMP JUMPDEST JUMPDEST DUP1 PUSH1 0x40 MSTORE POP POP POP JUMP JUMPDEST PUSH0 PUSH2 0x53F PUSH2 0x4AF JUMP JUMPDEST SWAP1 POP PUSH2 0x54B DUP3 DUP3 PUSH2 0x505 JUMP JUMPDEST SWAP2 SWAP1 POP JUMP JUMPDEST PUSH0 PUSH8 0xFFFFFFFFFFFFFFFF DUP3 GT ISZERO PUSH2 0x56A JUMPI PUSH2 0x569 PUSH2 0x4D8 JUMP JUMPDEST JUMPDEST PUSH2 0x573 DUP3 PUSH2 0x4C8 JUMP JUMPDEST SWAP1 POP PUSH1 0x20 DUP2 ADD SWAP1 POP SWAP2 SWAP1 POP JUMP JUMPDEST DUP3 DUP2 DUP4 CALLDATACOPY PUSH0 DUP4 DUP4 ADD MSTORE POP POP POP JUMP JUMPDEST PUSH0 PUSH2 0x5A0 PUSH2 0x59B DUP5 PUSH2 0x550 JUMP JUMPDEST PUSH2 0x536 JUMP JUMPDEST SWAP1 POP DUP3 DUP2 MSTORE PUSH1 0x20 DUP2 ADD DUP5 DUP5 DUP5 ADD GT ISZERO PUSH2 0x5BC JUMPI PUSH2 0x5BB PUSH2 0x4C4 JUMP JUMPDEST JUMPDEST PUSH2 0x5C7 DUP5 DUP3 DUP6 PUSH2 0x580 JUMP JUMPDEST POP SWAP4 SWAP3 POP POP POP JUMP JUMPDEST PUSH0 DUP3 PUSH1 0x1F DUP4 ADD SLT PUSH2 0x5E3 JUMPI PUSH2 0x5E2 PUSH2 0x4C0 JUMP JUMPDEST JUMPDEST DUP2 CALLDATALOAD PUSH2 0x5F3 DUP5 DUP3 PUSH1 0x20 DUP7 ADD PUSH2 0x58E JUMP JUMPDEST SWAP2 POP POP SWAP3 SWAP2 POP POP JUMP JUMPDEST PUSH0 PUSH0 PUSH1 0x40 DUP4 DUP6 SUB SLT ISZERO PUSH2 0x612 JUMPI PUSH2 0x611 PUSH2 0x4B8 JUMP JUMPDEST JUMPDEST PUSH0 DUP4 ADD CALLDATALOAD PUSH8 0xFFFFFFFFFFFFFFFF DUP2 GT ISZERO PUSH2 0x62F JUMPI PUSH2 0x62E PUSH2 0x4BC JUMP JUMPDEST JUMPDEST PUSH2 0x63B DUP6 DUP3 DUP7 ADD PUSH2 0x5CF JUMP JUMPDEST SWAP3 POP POP PUSH1 0x20 DUP4 ADD CALLDATALOAD PUSH8 0xFFFFFFFFFFFFFFFF DUP2 GT ISZERO PUSH2 0x65C JUMPI PUSH2 0x65B PUSH2 0x4BC JUMP JUMPDEST JUMPDEST PUSH2 0x668 DUP6 DUP3 DUP7 ADD PUSH2 0x5CF JUMP JUMPDEST SWAP2 POP POP SWAP3 POP SWAP3 SWAP1 POP JUMP JUMPDEST PUSH0 PUSH1 0x20 DUP3 DUP5 SUB SLT ISZERO PUSH2 0x687 JUMPI PUSH2 0x686 PUSH2 0x4B8 JUMP JUMPDEST JUMPDEST PUSH0 DUP3 ADD CALLDATALOAD PUSH8 0xFFFFFFFFFFFFFFFF DUP2 GT ISZERO PUSH2 0x6A4 JUMPI PUSH2 0x6A3 PUSH2 0x4BC JUMP JUMPDEST JUMPDEST PUSH2 0x6B0 DUP5 DUP3 DUP6 ADD PUSH2 0x5CF JUMP JUMPDEST SWAP2 POP POP SWAP3 SWAP2 POP POP JUMP JUMPDEST PUSH0 DUP2 ISZERO ISZERO SWAP1 POP SWAP2 SWAP1 POP JUMP JUMPDEST PUSH2 0x6CD DUP2 PUSH2 0x6B9 JUMP JUMPDEST DUP3 MSTORE POP POP JUMP JUMPDEST PUSH0 DUP2 MLOAD SWAP1 POP SWAP2 SWAP1 POP JUMP JUMPDEST PUSH0 DUP3 DUP3 MSTORE PUSH1 0x20 DUP3 ADD SWAP1 POP SWAP3 SWAP2 POP POP JUMP JUMPDEST DUP3 DUP2 DUP4 MCOPY PUSH0 DUP4 DUP4 ADD MSTORE POP POP POP JUMP JUMPDEST PUSH0 PUSH2 0x705 DUP3 PUSH2 0x6D3 JUMP JUMPDEST PUSH2 0x70F DUP2 DUP6 PUSH2 0x6DD JUMP JUMPDEST SWAP4 POP PUSH2 0x71F DUP2 DUP6 PUSH1 0x20 DUP7 ADD PUSH2 0x6ED JUMP JUMPDEST PUSH2 0x728 DUP2 PUSH2 0x4C8 JUMP JUMPDEST DUP5 ADD SWAP2 POP POP SWAP3 SWAP2 POP POP JUMP JUMPDEST PUSH0 PUSH20 0xFFFFFFFFFFFFFFFFFFFFFFFFFFFFFFFFFFFFFFFF DUP3 AND SWAP1 POP SWAP2 SWAP1 POP JUMP JUMPDEST PUSH0 PUSH2 0x75C DUP3 PUSH2 0x733 JUMP JUMPDEST SWAP1 POP SWAP2 SWAP1 POP JUMP JUMPDEST PUSH2 0x76C DUP2 PUSH2 0x752 JUMP JUMPDEST DUP3 MSTORE POP POP JUMP JUMPDEST PUSH0 DUP2 SWAP1 POP SWAP2 SWAP1 POP JUMP JUMPDEST PUSH2 0x784 DUP2 PUSH2 0x772 JUMP JUMPDEST DUP3 MSTORE POP POP JUMP JUMPDEST PUSH0 PUSH1 0x80 DUP3 ADD SWAP1 POP PUSH2 0x79D PUSH0 DUP4 ADD DUP8 PUSH2 0x6C4 JUMP JUMPDEST DUP2 DUP2 SUB PUSH1 0x20 DUP4 ADD MSTORE PUSH2 0x7AF DUP2 DUP7 PUSH2 0x6FB JUMP JUMPDEST SWAP1 POP PUSH2 0x7BE PUSH1 0x40 DUP4 ADD DUP6 PUSH2 0x763 JUMP JUMPDEST PUSH2 0x7CB PUSH1 0x60 DUP4 ADD DUP5 PUSH2 0x77B JUMP JUMPDEST SWAP6 SWAP5 POP POP POP POP POP JUMP JUMPDEST PUSH0 DUP2 SWAP1 POP SWAP3 SWAP2 POP POP JUMP JUMPDEST PUSH0 PUSH2 0x7E8 DUP3 PUSH2 0x6D3 JUMP JUMPDEST PUSH2 0x7F2 DUP2 DUP6 PUSH2 0x7D4 JUMP JUMPDEST SWAP4 POP PUSH2 0x802 DUP2 DUP6 PUSH1 0x20 DUP7 ADD PUSH2 0x6ED JUMP JUMPDEST DUP1 DUP5 ADD SWAP2 POP POP SWAP3 SWAP2 POP POP JUMP JUMPDEST PUSH0 PUSH2 0x819 DUP3 DUP5 PUSH2 0x7DE JUMP JUMPDEST SWAP2 POP DUP2 SWAP1 POP SWAP3 SWAP2 POP POP JUMP JUMPDEST PUSH32 0x50726F647563742073657269616C206E756D62657220616C7265616479207265 PUSH0 DUP3 ADD MSTORE PUSH32 0x67697374657265642E0000000000000000000000000000000000000000000000 PUSH1 0x20 DUP3 ADD MSTORE POP JUMP JUMPDEST PUSH0 PUSH2 0x87E PUSH1 0x29 DUP4 PUSH2 0x6DD JUMP JUMPDEST SWAP2 POP PUSH2 0x889 DUP3 PUSH2 0x824 JUMP JUMPDEST PUSH1 0x40 DUP3 ADD SWAP1 POP SWAP2 SWAP1 POP JUMP JUMPDEST PUSH0 PUSH1 0x20 DUP3 ADD SWAP1 POP DUP2 DUP2 SUB PUSH0 DUP4 ADD MSTORE PUSH2 0x8AB DUP2 PUSH2 0x872 JUMP JUMPDEST SWAP1 POP SWAP2 SWAP1 POP JUMP JUMPDEST PUSH32 0x4E487B7100000000000000000000000000000000000000000000000000000000 PUSH0 MSTORE PUSH1 0x22 PUSH1 0x4 MSTORE PUSH1 0x24 PUSH0 REVERT JUMPDEST PUSH0 PUSH1 0x2 DUP3 DIV SWAP1 POP PUSH1 0x1 DUP3 AND DUP1 PUSH2 0x8F6 JUMPI PUSH1 0x7F DUP3 AND SWAP2 POP JUMPDEST PUSH1 0x20 DUP3 LT DUP2 SUB PUSH2 0x909 JUMPI PUSH2 0x908 PUSH2 0x8B2 JUMP JUMPDEST JUMPDEST POP SWAP2 SWAP1 POP JUMP JUMPDEST PUSH0 DUP2 SWAP1 POP DUP2 PUSH0 MSTORE PUSH1 0x20 PUSH0 KECCAK256 SWAP1 POP SWAP2 SWAP1 POP JUMP JUMPDEST PUSH0 PUSH1 0x20 PUSH1 0x1F DUP4 ADD DIV SWAP1 POP SWAP2 SWAP1 POP JUMP JUMPDEST PUSH0 DUP3 DUP3 SHL SWAP1 POP SWAP3 SWAP2 POP POP JUMP JUMPDEST PUSH0 PUSH1 0x8 DUP4 MUL PUSH2 0x96B PUSH32 0xFFFFFFFFFFFFFFFFFFFFFFFFFFFFFFFFFFFFFFFFFFFFFFFFFFFFFFFFFFFFFFFF DUP3 PUSH2 0x930 JUMP JUMPDEST PUSH2 0x975 DUP7 DUP4 PUSH2 0x930 JUMP JUMPDEST SWAP6 POP DUP1 NOT DUP5 AND SWAP4 POP DUP1 DUP7 AND DUP5 OR SWAP3 POP POP POP SWAP4 SWAP3 POP POP POP JUMP JUMPDEST PUSH0 DUP2 SWAP1 POP SWAP2 SWAP1 POP JUMP JUMPDEST PUSH0 PUSH2 0x9B0 PUSH2 0x9AB PUSH2 0x9A6 DUP5 PUSH2 0x772 JUMP JUMPDEST PUSH2 0x98D JUMP JUMPDEST PUSH2 0x772 JUMP JUMPDEST SWAP1 POP SWAP2 SWAP1 POP JUMP JUMPDEST PUSH0 DUP2 SWAP1 POP SWAP2 SWAP1 POP JUMP JUMPDEST PUSH2 0x9C9 DUP4 PUSH2 0x996 JUMP JUMPDEST PUSH2 0x9DD PUSH2 0x9D5 DUP3 PUSH2 0x9B7 JUMP JUMPDEST DUP5 DUP5 SLOAD PUSH2 0x93C JUMP JUMPDEST DUP3 SSTORE POP POP POP POP JUMP JUMPDEST PUSH0 PUSH0 SWAP1 POP SWAP1 JUMP JUMPDEST PUSH2 0x9F4 PUSH2 0x9E5 JUMP JUMPDEST PUSH2 0x9FF DUP2 DUP5 DUP5 PUSH2 0x9C0 JUMP JUMPDEST POP POP POP JUMP JUMPDEST JUMPDEST DUP2 DUP2 LT ISZERO PUSH2 0xA22 JUMPI PUSH2 0xA17 PUSH0 DUP3 PUSH2 0x9EC JUMP JUMPDEST PUSH1 0x1 DUP2 ADD SWAP1 POP PUSH2 0xA05 JUMP JUMPDEST POP POP JUMP JUMPDEST PUSH1 0x1F DUP3 GT ISZERO PUSH2 0xA67 JUMPI PUSH2 0xA38 DUP2 PUSH2 0x90F JUMP JUMPDEST PUSH2 0xA41 DUP5 PUSH2 0x921 JUMP JUMPDEST DUP2 ADD PUSH1 0x20 DUP6 LT ISZERO PUSH2 0xA50 JUMPI DUP2 SWAP1 POP JUMPDEST PUSH2 0xA64 PUSH2 0xA5C DUP6 PUSH2 0x921 JUMP JUMPDEST DUP4 ADD DUP3 PUSH2 0xA04 JUMP JUMPDEST POP POP JUMPDEST POP POP POP JUMP JUMPDEST PUSH0 DUP3 DUP3 SHR SWAP1 POP SWAP3 SWAP2 POP POP JUMP JUMPDEST PUSH0 PUSH2 0xA87 PUSH0 NOT DUP5 PUSH1 0x8 MUL PUSH2 0xA6C JUMP JUMPDEST NOT DUP1 DUP4 AND SWAP2 POP POP SWAP3 SWAP2 POP POP JUMP JUMPDEST PUSH0 PUSH2 0xA9F DUP4 DUP4 PUSH2 0xA78 JUMP JUMPDEST SWAP2 POP DUP3 PUSH1 0x2 MUL DUP3 OR SWAP1 POP SWAP3 SWAP2 POP POP JUMP JUMPDEST PUSH2 0xAB8 DUP3 PUSH2 0x6D3 JUMP JUMPDEST PUSH8 0xFFFFFFFFFFFFFFFF DUP2 GT ISZERO PUSH2 0xAD1 JUMPI PUSH2 0xAD0 PUSH2 0x4D8 JUMP JUMPDEST JUMPDEST PUSH2 0xADB DUP3 SLOAD PUSH2 0x8DF JUMP JUMPDEST PUSH2 0xAE6 DUP3 DUP3 DUP6 PUSH2 0xA26 JUMP JUMPDEST PUSH0 PUSH1 0x20 SWAP1 POP PUSH1 0x1F DUP4 GT PUSH1 0x1 DUP2 EQ PUSH2 0xB17 JUMPI PUSH0 DUP5 ISZERO PUSH2 0xB05 JUMPI DUP3 DUP8 ADD MLOAD SWAP1 POP JUMPDEST PUSH2 0xB0F DUP6 DUP3 PUSH2 0xA94 JUMP JUMPDEST DUP7 SSTORE POP PUSH2 0xB76 JUMP JUMPDEST PUSH1 0x1F NOT DUP5 AND PUSH2 0xB25 DUP7 PUSH2 0x90F JUMP JUMPDEST PUSH0 JUMPDEST DUP3 DUP2 LT ISZERO PUSH2 0xB4C JUMPI DUP5 DUP10 ADD MLOAD DUP3 SSTORE PUSH1 0x1 DUP3 ADD SWAP2 POP PUSH1 0x20 DUP6 ADD SWAP5 POP PUSH1 0x20 DUP2 ADD SWAP1 POP PUSH2 0xB27 JUMP JUMPDEST DUP7 DUP4 LT ISZERO PUSH2 0xB69 JUMPI DUP5 DUP10 ADD MLOAD PUSH2 0xB65 PUSH1 0x1F DUP10 AND DUP3 PUSH2 0xA78 JUMP JUMPDEST DUP4 SSTORE POP JUMPDEST PUSH1 0x1 PUSH1 0x2 DUP9 MUL ADD DUP9 SSTORE POP POP POP JUMPDEST POP POP POP POP POP POP JUMP JUMPDEST PUSH0 PUSH1 0x40 DUP3 ADD SWAP1 POP DUP2 DUP2 SUB PUSH0 DUP4 ADD MSTORE PUSH2 0xB96 DUP2 DUP6 PUSH2 0x6FB JUMP JUMPDEST SWAP1 POP PUSH2 0xBA5 PUSH1 0x20 DUP4 ADD DUP5 PUSH2 0x77B JUMP JUMPDEST SWAP4 SWAP3 POP POP POP JUMP JUMPDEST PUSH32 0x50726F64756374206E6F7420666F756E642E0000000000000000000000000000 PUSH0 DUP3 ADD MSTORE POP JUMP JUMPDEST PUSH0 PUSH2 0xBE0 PUSH1 0x12 DUP4 PUSH2 0x6DD JUMP JUMPDEST SWAP2 POP PUSH2 0xBEB DUP3 PUSH2 0xBAC JUMP JUMPDEST PUSH1 0x20 DUP3 ADD SWAP1 POP SWAP2 SWAP1 POP JUMP JUMPDEST PUSH0 PUSH1 0x20 DUP3 ADD SWAP1 POP DUP2 DUP2 SUB PUSH0 DUP4 ADD MSTORE PUSH2 0xC0D DUP2 PUSH2 0xBD4 JUMP JUMPDEST SWAP1 POP SWAP2 SWAP1 POP JUMP INVALID LOG2 PUSH5 0x6970667358 0x22 SLT KECCAK256 LT CREATE2 PUSH32 0xBA72702A903A6CCC63B298C90249CC5FC7AF12692D800AE40215F69D2264736F PUSH13 0x634300081C0033000000000000 "},"methodIdentifiers":{"registerProduct(string,string)":"8fbd0dcf","verifyProduct(string)":"92efc453"}}}}}