{
  "_format": "hh-sol-artifact-1",
  "contractName": "ProductVerification",
  "sourceName": "contracts/ProductVerification.sol",
  "abi": [
    {
      "anonymous": false,
      "inputs": [
        {
          "indexed": true,
          "internalType": "string",
          "name": "productID",
          "type": "string"
        },
        {
          "indexed": false,
          "internalType": "string",
          "name": "name",
          "type": "string"
        },
        {
          "indexed": false,
          "internalType": "address",
          "name": "manufacturer",
          "type": "address"
        },
        {
          "indexed": false,
          "internalType": "uint256",
          "name": "timestamp",
          "type": "uint256"
        }
      ],
      "name": "ProductRegistered",
      "type": "event"
    },
    {
      "anonymous": false,
      "inputs": [
        {
          "indexed": true,
          "internalType": "string",
          "name": "productID",
          "type": "string"
        },
        {
          "indexed": false,
          "internalType": "address",
          "name": "retailer",
          "type": "address"
        },
        {
          "indexed": false,
          "internalType": "uint256",
          "name": "timestamp",
          "type": "uint256"
        }
      ],
      "name": "ProductSold",
      "type": "event"
    },
    {
      "anonymous": false,
      "inputs": [
        {
          "indexed": true,
          "internalType": "string",
          "name": "productID",
          "type": "string"
        },
        {
          "indexed": false,
          "internalType": "address",
          "name": "from",
          "type": "address"
        },
        {
          "indexed": false,
          "internalType": "address",
          "name": "to",
          "type": "address"
        },
        {
          "indexed": false,
          "internalType": "uint256",
          "name": "timestamp",
          "type": "uint256"
        }
      ],
      "name": "ProductTransferred",
      "type": "event"
    },
    {
      "inputs": [
        {
          "internalType": "string",
          "name": "_productID",
          "type": "string"
        }
      ],
      "name": "getProductHistory",
      "outputs": [
        {
          "components": [
            {
              "internalType": "address",
              "name": "previousOwner",
              "type": "address"
            },
            {
              "internalType": "address",
              "name": "newOwner",
              "type": "address"
            },
            {
              "internalType": "string",
              "name": "status",
              "type": "string"
            },
            {
              "internalType": "uint256",
              "name": "timestamp",
              "type": "uint256"
            }
          ],
          "internalType": "struct ProductVerification.History[]",
          "name": "",
          "type": "tuple[]"
        }
      ],
      "stateMutability": "view",
      "type": "function"
    },
    {
      "inputs": [
        {
          "internalType": "string",
          "name": "_productID",
          "type": "string"
        }
      ],
      "name": "markProductSold",
      "outputs": [],
      "stateMutability": "nonpayable",
      "type": "function"
    },
    {
      "inputs": [
        {
          "internalType": "string",
          "name": "",
          "type": "string"
        },
        {
          "internalType": "uint256",
          "name": "",
          "type": "uint256"
        }
      ],
      "name": "productHistory",
      "outputs": [
        {
          "internalType": "address",
          "name": "previousOwner",
          "type": "address"
        },
        {
          "internalType": "address",
          "name": "newOwner",
          "type": "address"
        },
        {
          "internalType": "string",
          "name": "status",
          "type": "string"
        },
        {
          "internalType": "uint256",
          "name": "timestamp",
          "type": "uint256"
        }
      ],
      "stateMutability": "view",
      "type": "function"
    },
    {
      "inputs": [
        {
          "internalType": "string",
          "name": "",
          "type": "string"
        }
      ],
      "name": "products",
      "outputs": [
        {
          "internalType": "string",
          "name": "productID",
          "type": "string"
        },
        {
          "internalType": "string",
          "name": "name",
          "type": "string"
        },
        {
          "internalType": "string",
          "name": "manufacturer",
          "type": "string"
        },
        {
          "internalType": "string",
          "name": "batch",
          "type": "string"
        },
        {
          "internalType": "string",
          "name": "manufactureDate",
          "type": "string"
        },
        {
          "internalType": "address",
          "name": "currentOwner",
          "type": "address"
        },
        {
          "internalType": "string",
          "name": "status",
          "type": "string"
        },
        {
          "internalType": "bool",
          "name": "isRegistered",
          "type": "bool"
        }
      ],
      "stateMutability": "view",
      "type": "function"
    },
    {
      "inputs": [
        {
          "internalType": "string",
          "name": "_productID",
          "type": "string"
        },
        {
          "internalType": "string",
          "name": "_name",
          "type": "string"
        },
        {
          "internalType": "string",
          "name": "_manufacturer",
          "type": "string"
        },
        {
          "internalType": "string",
          "name": "_batch",
          "type": "string"
        },
        {
          "internalType": "string",
          "name": "_manufactureDate",
          "type": "string"
        }
      ],
      "name": "registerProduct",
      "outputs": [],
      "stateMutability": "nonpayable",
      "type": "function"
    },
    {
      "inputs": [
        {
          "internalType": "string",
          "name": "_productID",
          "type": "string"
        },
        {
          "internalType": "address",
          "name": "_to",
          "type": "address"
        }
      ],
      "name": "transferProduct",
      "outputs": [],
      "stateMutability": "nonpayable",
      "type": "function"
    },
    {
      "inputs": [
        {
          "internalType": "string",
          "name": "_productID",
          "type": "string"
        }
      ],
      "name": "verifyProduct",
      "outputs": [
        {
          "components": [
            {
              "internalType": "string",
              "name": "productID",
              "type": "string"
            },
            {
              "internalType": "string",
              "name": "name",
              "type": "string"
            },
            {
              "internalType": "string",
              "name": "manufacturer",
              "type": "string"
            },
            {
              "internalType": "string",
              "name": "batch",
              "type": "string"
            },
            {
              "internalType": "string",
              "name": "manufactureDate",
              "type": "string"
            },
            {
              "internalType": "address",
              "name": "currentOwner",
              "type": "address"
            },
            {
              "internalType": "string",
              "name": "status",
              "type": "string"
            },
            {
              "internalType": "bool",
              "name": "isRegistered",
              "type": "bool"
            }
          ],
          "internalType": "struct ProductVerification.Product",
          "name": "",
          "type": "tuple"
        }
      ],
      "stateMutability": "view",
      "type": "function"
    }
  ],
  "bytecode": "0x6080604052348015600f57600080fd5b506129e28061001f6000396000f3fe608060405234801561001057600080fd5b506004361061007d5760003560e01c806390afcb9d1161005b57806390afcb9d1461010857806392efc45314610124578063c49f977514610154578063d4f50453146101705761007d565b80630186a4231461008257806301970b11146100b95780630aaab402146100ec575b600080fd5b61009c60048036038101906100979190611ba5565b6101a0565b6040516100b0989796959493929190611cc9565b60405180910390f35b6100d360048036038101906100ce9190611da7565b61055b565b6040516100e39493929190611e12565b60405180910390f35b61010660048036038101906101019190611ba5565b610686565b005b610122600480360381019061011d9190611e8a565b610b25565b005b61013e60048036038101906101399190611ba5565b610f62565b60405161014b9190612021565b60405180910390f35b61016e60048036038101906101699190612043565b6113e6565b005b61018a60048036038101906101859190611ba5565b6117bb565b604051610197919061227e565b60405180910390f35b6000818051602081018201805184825260208301602085012081835280955050505050506000915090508060000180546101d9906122cf565b80601f0160208091040260200160405190810160405280929190818152602001828054610205906122cf565b80156102525780601f1061022757610100808354040283529160200191610252565b820191906000526020600020905b81548152906001019060200180831161023557829003601f168201915b505050505090806001018054610267906122cf565b80601f0160208091040260200160405190810160405280929190818152602001828054610293906122cf565b80156102e05780601f106102b5576101008083540402835291602001916102e0565b820191906000526020600020905b8154815290600101906020018083116102c357829003601f168201915b5050505050908060020180546102f5906122cf565b80601f0160208091040260200160405190810160405280929190818152602001828054610321906122cf565b801561036e5780601f106103435761010080835404028352916020019161036e565b820191906000526020600020905b81548152906001019060200180831161035157829003601f168201915b505050505090806003018054610383906122cf565b80601f01602080910402602001604051908101604052809291908181526020018280546103af906122cf565b80156103fc5780601f106103d1576101008083540402835291602001916103fc565b820191906000526020600020905b8154815290600101906020018083116103df57829003601f168201915b505050505090806004018054610411906122cf565b80601f016020809104026020016040519081016040528092919081815260200182805461043d906122cf565b801561048a5780601f1061045f5761010080835404028352916020019161048a565b820191906000526020600020905b81548152906001019060200180831161046d57829003601f168201915b5050505050908060050160009054906101000a900473ffffffffffffffffffffffffffffffffffffffff16908060060180546104c5906122cf565b80601f01602080910402602001604051908101604052809291908181526020018280546104f1906122cf565b801561053e5780601f106105135761010080835404028352916020019161053e565b820191906000526020600020905b81548152906001019060200180831161052157829003601f168201915b5050505050908060070160009054906101000a900460ff16905088565b600182805160208101820180518482526020830160208501208183528095505050505050818154811061058d57600080fd5b9060005260206000209060040201600091509150508060000160009054906101000a900473ffffffffffffffffffffffffffffffffffffffff16908060010160009054906101000a900473ffffffffffffffffffffffffffffffffffffffff16908060020180546105fd906122cf565b80601f0160208091040260200160405190810160405280929190818152602001828054610629906122cf565b80156106765780601f1061064b57610100808354040283529160200191610676565b820191906000526020600020905b81548152906001019060200180831161065957829003601f168201915b5050505050908060030154905084565b600081604051610696919061233c565b908152602001604051809103902060070160009054906101000a900460ff166106f4576040517f08c379a00000000000000000000000000000000000000000000000000000000081526004016106eb9061239f565b60405180910390fd5b3373ffffffffffffffffffffffffffffffffffffffff1660008260405161071b919061233c565b908152602001604051809103902060050160009054906101000a900473ffffffffffffffffffffffffffffffffffffffff1673ffffffffffffffffffffffffffffffffffffffff16146107a3576040517f08c379a000000000000000000000000000000000000000000000000000000000815260040161079a90612431565b60405180910390fd5b6040516020016107b29061249d565b604051602081830303815290604052805190602001206000826040516107d8919061233c565b90815260200160405180910390206006016040516020016107f9919061254a565b604051602081830303815290604052805190602001200361084f576040517f08c379a0000000000000000000000000000000000000000000000000000000008152600401610846906125ad565b60405180910390fd5b60008082604051610860919061233c565b908152602001604051809103902060050160009054906101000a900473ffffffffffffffffffffffffffffffffffffffff169050600080836040516108a5919061233c565b908152602001604051809103902060050160006101000a81548173ffffffffffffffffffffffffffffffffffffffff021916908373ffffffffffffffffffffffffffffffffffffffff1602179055506040518060400160405280600481526020017f536f6c640000000000000000000000000000000000000000000000000000000081525060008360405161093a919061233c565b908152602001604051809103902060060190816109579190612764565b50600182604051610968919061233c565b908152602001604051809103902060405180608001604052808373ffffffffffffffffffffffffffffffffffffffff168152602001600073ffffffffffffffffffffffffffffffffffffffff1681526020016040518060400160405280601081526020017f536f6c6420746f20436f6e73756d657200000000000000000000000000000000815250815260200142815250908060018154018082558091505060019003906000526020600020906004020160009091909190915060008201518160000160006101000a81548173ffffffffffffffffffffffffffffffffffffffff021916908373ffffffffffffffffffffffffffffffffffffffff16021790555060208201518160010160006101000a81548173ffffffffffffffffffffffffffffffffffffffff021916908373ffffffffffffffffffffffffffffffffffffffff1602179055506040820151816002019081610ac59190612764565b5060608201518160030155505081604051610ae0919061233c565b60405180910390207fd0597de7b4841220d83e82517ef6d92df0c5edab071069f65a89c2c66ca407aa3342604051610b19929190612836565b60405180910390a25050565b600082604051610b35919061233c565b908152602001604051809103902060070160009054906101000a900460ff16610b93576040517f08c379a0000000000000000000000000000000000000000000000000000000008152600401610b8a9061239f565b60405180910390fd5b3373ffffffffffffffffffffffffffffffffffffffff16600083604051610bba919061233c565b908152602001604051809103902060050160009054906101000a900473ffffffffffffffffffffffffffffffffffffffff1673ffffffffffffffffffffffffffffffffffffffff1614610c42576040517f08c379a0000000000000000000000000000000000000000000000000000000008152600401610c39906128ab565b60405180910390fd5b604051602001610c519061249d565b60405160208183030381529060405280519060200120600083604051610c77919061233c565b9081526020016040518091039020600601604051602001610c98919061254a565b6040516020818303038152906040528051906020012003610cee576040517f08c379a0000000000000000000000000000000000000000000000000000000008152600401610ce5906125ad565b60405180910390fd5b60008083604051610cff919061233c565b908152602001604051809103902060050160009054906101000a900473ffffffffffffffffffffffffffffffffffffffff16905081600084604051610d44919061233c565b908152602001604051809103902060050160006101000a81548173ffffffffffffffffffffffffffffffffffffffff021916908373ffffffffffffffffffffffffffffffffffffffff160217905550600183604051610da3919061233c565b908152602001604051809103902060405180608001604052808373ffffffffffffffffffffffffffffffffffffffff1681526020018473ffffffffffffffffffffffffffffffffffffffff1681526020016040518060400160405280601481526020017f416374697665202d205472616e73666572726564000000000000000000000000815250815260200142815250908060018154018082558091505060019003906000526020600020906004020160009091909190915060008201518160000160006101000a81548173ffffffffffffffffffffffffffffffffffffffff021916908373ffffffffffffffffffffffffffffffffffffffff16021790555060208201518160010160006101000a81548173ffffffffffffffffffffffffffffffffffffffff021916908373ffffffffffffffffffffffffffffffffffffffff1602179055506040820151816002019081610eff9190612764565b5060608201518160030155505082604051610f1a919061233c565b60405180910390207f6c37ca4ce4c7e38038d1e3c1f75f6d44da2bdc96a8096fc8bcf3f1c865fb56ad828442604051610f55939291906128cb565b60405180910390a2505050565b610f6a6119ee565b600082604051610f7a919061233c565b908152602001604051809103902060070160009054906101000a900460ff16610fd8576040517f08c379a0000000000000000000000000000000000000000000000000000000008152600401610fcf9061239f565b60405180910390fd5b600082604051610fe8919061233c565b908152602001604051809103902060405180610100016040529081600082018054611012906122cf565b80601f016020809104026020016040519081016040528092919081815260200182805461103e906122cf565b801561108b5780601f106110605761010080835404028352916020019161108b565b820191906000526020600020905b81548152906001019060200180831161106e57829003601f168201915b505050505081526020016001820180546110a4906122cf565b80601f01602080910402602001604051908101604052809291908181526020018280546110d0906122cf565b801561111d5780601f106110f25761010080835404028352916020019161111d565b820191906000526020600020905b81548152906001019060200180831161110057829003601f168201915b50505050508152602001600282018054611136906122cf565b80601f0160208091040260200160405190810160405280929190818152602001828054611162906122cf565b80156111af5780601f10611184576101008083540402835291602001916111af565b820191906000526020600020905b81548152906001019060200180831161119257829003601f168201915b505050505081526020016003820180546111c8906122cf565b80601f01602080910402602001604051908101604052809291908181526020018280546111f4906122cf565b80156112415780601f1061121657610100808354040283529160200191611241565b820191906000526020600020905b81548152906001019060200180831161122457829003601f168201915b5050505050815260200160048201805461125a906122cf565b80601f0160208091040260200160405190810160405280929190818152602001828054611286906122cf565b80156112d35780601f106112a8576101008083540402835291602001916112d3565b820191906000526020600020905b8154815290600101906020018083116112b657829003601f168201915b505050505081526020016005820160009054906101000a900473ffffffffffffffffffffffffffffffffffffffff1673ffffffffffffffffffffffffffffffffffffffff1673ffffffffffffffffffffffffffffffffffffffff168152602001600682018054611342906122cf565b80601f016020809104026020016040519081016040528092919081815260200182805461136e906122cf565b80156113bb5780601f10611390576101008083540402835291602001916113bb565b820191906000526020600020905b81548152906001019060200180831161139e57829003601f168201915b505050505081526020016007820160009054906101000a900460ff1615151515815250509050919050565b6000856040516113f6919061233c565b908152602001604051809103902060070160009054906101000a900460ff1615611455576040517f08c379a000000000000000000000000000000000000000000000000000000000815260040161144c9061294e565b60405180910390fd5b6040518061010001604052808681526020018581526020018481526020018381526020018281526020013373ffffffffffffffffffffffffffffffffffffffff1681526020016040518060400160405280600681526020017f41637469766500000000000000000000000000000000000000000000000000008152508152602001600115158152506000866040516114ed919061233c565b908152602001604051809103902060008201518160000190816115109190612764565b5060208201518160010190816115269190612764565b50604082015181600201908161153c9190612764565b5060608201518160030190816115529190612764565b5060808201518160040190816115689190612764565b5060a08201518160050160006101000a81548173ffffffffffffffffffffffffffffffffffffffff021916908373ffffffffffffffffffffffffffffffffffffffff16021790555060c08201518160060190816115c59190612764565b5060e08201518160070160006101000a81548160ff0219169083151502179055509050506001856040516115f9919061233c565b90815260200160405180910390206040518060800160405280600073ffffffffffffffffffffffffffffffffffffffff1681526020013373ffffffffffffffffffffffffffffffffffffffff1681526020016040518060400160405280601381526020017f416374697665202d205265676973746572656400000000000000000000000000815250815260200142815250908060018154018082558091505060019003906000526020600020906004020160009091909190915060008201518160000160006101000a81548173ffffffffffffffffffffffffffffffffffffffff021916908373ffffffffffffffffffffffffffffffffffffffff16021790555060208201518160010160006101000a81548173ffffffffffffffffffffffffffffffffffffffff021916908373ffffffffffffffffffffffffffffffffffffffff16021790555060408201518160020190816117569190612764565b5060608201518160030155505084604051611771919061233c565b60405180910390207f0c0d491e345bc2978c00d63d2467e57a7b6d771cf759616a786b1d339d75f1b58533426040516117ac9392919061296e565b60405180910390a25050505050565b60606000826040516117cd919061233c565b908152602001604051809103902060070160009054906101000a900460ff1661182b576040517f08c379a00000000000000000000000000000000000000000000000000000000081526004016118229061239f565b60405180910390fd5b60018260405161183b919061233c565b9081526020016040518091039020805480602002602001604051908101604052809291908181526020016000905b828210156119e357838290600052602060002090600402016040518060800160405290816000820160009054906101000a900473ffffffffffffffffffffffffffffffffffffffff1673ffffffffffffffffffffffffffffffffffffffff1673ffffffffffffffffffffffffffffffffffffffff1681526020016001820160009054906101000a900473ffffffffffffffffffffffffffffffffffffffff1673ffffffffffffffffffffffffffffffffffffffff1673ffffffffffffffffffffffffffffffffffffffff168152602001600282018054611948906122cf565b80601f0160208091040260200160405190810160405280929190818152602001828054611974906122cf565b80156119c15780601f10611996576101008083540402835291602001916119c1565b820191906000526020600020905b8154815290600101906020018083116119a457829003601f168201915b5050505050815260200160038201548152505081526020019060010190611869565b505050509050919050565b6040518061010001604052806060815260200160608152602001606081526020016060815260200160608152602001600073ffffffffffffffffffffffffffffffffffffffff168152602001606081526020016000151581525090565b6000604051905090565b600080fd5b600080fd5b600080fd5b600080fd5b6000601f19601f8301169050919050565b7f4e487b7100000000000000000000000000000000000000000000000000000000600052604160045260246000fd5b611ab282611a69565b810181811067ffffffffffffffff82111715611ad157611ad0611a7a565b5b80604052505050565b6000611ae4611a4b565b9050611af08282611aa9565b919050565b600067ffffffffffffffff821115611b1057611b0f611a7a565b5b611b1982611a69565b9050602081019050919050565b82818337600083830152505050565b6000611b48611b4384611af5565b611ada565b905082815260208101848484011115611b6457611b63611a64565b5b611b6f848285611b26565b509392505050565b600082601f830112611b8c57611b8b611a5f565b5b8135611b9c848260208601611b35565b91505092915050565b600060208284031215611bbb57611bba611a55565b5b600082013567ffffffffffffffff811115611bd957611bd8611a5a565b5b611be584828501611b77565b91505092915050565b600081519050919050565b600082825260208201905092915050565b60005b83811015611c28578082015181840152602081019050611c0d565b60008484015250505050565b6000611c3f82611bee565b611c498185611bf9565b9350611c59818560208601611c0a565b611c6281611a69565b840191505092915050565b600073ffffffffffffffffffffffffffffffffffffffff82169050919050565b6000611c9882611c6d565b9050919050565b611ca881611c8d565b82525050565b60008115159050919050565b611cc381611cae565b82525050565b6000610100820190508181036000830152611ce4818b611c34565b90508181036020830152611cf8818a611c34565b90508181036040830152611d0c8189611c34565b90508181036060830152611d208188611c34565b90508181036080830152611d348187611c34565b9050611d4360a0830186611c9f565b81810360c0830152611d558185611c34565b9050611d6460e0830184611cba565b9998505050505050505050565b6000819050919050565b611d8481611d71565b8114611d8f57600080fd5b50565b600081359050611da181611d7b565b92915050565b60008060408385031215611dbe57611dbd611a55565b5b600083013567ffffffffffffffff811115611ddc57611ddb611a5a565b5b611de885828601611b77565b9250506020611df985828601611d92565b9150509250929050565b611e0c81611d71565b82525050565b6000608082019050611e276000830187611c9f565b611e346020830186611c9f565b8181036040830152611e468185611c34565b9050611e556060830184611e03565b95945050505050565b611e6781611c8d565b8114611e7257600080fd5b50565b600081359050611e8481611e5e565b92915050565b60008060408385031215611ea157611ea0611a55565b5b600083013567ffffffffffffffff811115611ebf57611ebe611a5a565b5b611ecb85828601611b77565b9250506020611edc85828601611e75565b9150509250929050565b600082825260208201905092915050565b6000611f0282611bee565b611f0c8185611ee6565b9350611f1c818560208601611c0a565b611f2581611a69565b840191505092915050565b611f3981611c8d565b82525050565b611f4881611cae565b82525050565b6000610100830160008301518482036000860152611f6c8282611ef7565b91505060208301518482036020860152611f868282611ef7565b91505060408301518482036040860152611fa08282611ef7565b91505060608301518482036060860152611fba8282611ef7565b91505060808301518482036080860152611fd48282611ef7565b91505060a0830151611fe960a0860182611f30565b5060c083015184820360c08601526120018282611ef7565b91505060e083015161201660e0860182611f3f565b508091505092915050565b6000602082019050818103600083015261203b8184611f4e565b905092915050565b600080600080600060a0868803121561205f5761205e611a55565b5b600086013567ffffffffffffffff81111561207d5761207c611a5a565b5b61208988828901611b77565b955050602086013567ffffffffffffffff8111156120aa576120a9611a5a565b5b6120b688828901611b77565b945050604086013567ffffffffffffffff8111156120d7576120d6611a5a565b5b6120e388828901611b77565b935050606086013567ffffffffffffffff81111561210457612103611a5a565b5b61211088828901611b77565b925050608086013567ffffffffffffffff81111561213157612130611a5a565b5b61213d88828901611b77565b9150509295509295909350565b600081519050919050565b600082825260208201905092915050565b6000819050602082019050919050565b61217f81611d71565b82525050565b600060808301600083015161219d6000860182611f30565b5060208301516121b06020860182611f30565b50604083015184820360408601526121c88282611ef7565b91505060608301516121dd6060860182612176565b508091505092915050565b60006121f48383612185565b905092915050565b6000602082019050919050565b60006122148261214a565b61221e8185612155565b93508360208202850161223085612166565b8060005b8581101561226c578484038952815161224d85826121e8565b9450612258836121fc565b925060208a01995050600181019050612234565b50829750879550505050505092915050565b600060208201905081810360008301526122988184612209565b905092915050565b7f4e487b7100000000000000000000000000000000000000000000000000000000600052602260045260246000fd5b600060028204905060018216806122e757607f821691505b6020821081036122fa576122f96122a0565b5b50919050565b600081905092915050565b600061231682611bee565b6123208185612300565b9350612330818560208601611c0a565b80840191505092915050565b6000612348828461230b565b915081905092915050565b7f50726f64756374206e6f7420666f756e64000000000000000000000000000000600082015250565b6000612389601183611bf9565b915061239482612353565b602082019050919050565b600060208201905081810360008301526123b88161237c565b9050919050565b7f4f6e6c792063757272656e74206f776e65722063616e206d61726b206173207360008201527f6f6c640000000000000000000000000000000000000000000000000000000000602082015250565b600061241b602383611bf9565b9150612426826123bf565b604082019050919050565b6000602082019050818103600083015261244a8161240e565b9050919050565b7f536f6c6400000000000000000000000000000000000000000000000000000000600082015250565b6000612487600483612300565b915061249282612451565b600482019050919050565b60006124a88261247a565b9150819050919050565b60008190508160005260206000209050919050565b600081546124d4816122cf565b6124de8186612300565b945060018216600081146124f9576001811461250e57612541565b60ff1983168652811515820286019350612541565b612517856124b2565b60005b838110156125395781548189015260018201915060208101905061251a565b838801955050505b50505092915050565b600061255682846124c7565b915081905092915050565b7f50726f6475637420616c726561647920736f6c64000000000000000000000000600082015250565b6000612597601483611bf9565b91506125a282612561565b602082019050919050565b600060208201905081810360008301526125c68161258a565b9050919050565b60006020601f8301049050919050565b600082821b905092915050565b60006008830261261a7fffffffffffffffffffffffffffffffffffffffffffffffffffffffffffffffff826125dd565b61262486836125dd565b95508019841693508086168417925050509392505050565b6000819050919050565b600061266161265c61265784611d71565b61263c565b611d71565b9050919050565b6000819050919050565b61267b83612646565b61268f61268782612668565b8484546125ea565b825550505050565b600090565b6126a4612697565b6126af818484612672565b505050565b5b818110156126d3576126c860008261269c565b6001810190506126b5565b5050565b601f821115612718576126e9816124b2565b6126f2846125cd565b81016020851015612701578190505b61271561270d856125cd565b8301826126b4565b50505b505050565b600082821c905092915050565b600061273b6000198460080261271d565b1980831691505092915050565b6000612754838361272a565b9150826002028217905092915050565b61276d82611bee565b67ffffffffffffffff81111561278657612785611a7a565b5b61279082546122cf565b61279b8282856126d7565b600060209050601f8311600181146127ce57600084156127bc578287015190505b6127c68582612748565b86555061282e565b601f1984166127dc866124b2565b60005b82811015612804578489015182556001820191506020850194506020810190506127df565b86831015612821578489015161281d601f89168261272a565b8355505b6001600288020188555050505b505050505050565b600060408201905061284b6000830185611c9f565b6128586020830184611e03565b9392505050565b7f4f6e6c792063757272656e74206f776e65722063616e207472616e7366657200600082015250565b6000612895601f83611bf9565b91506128a08261285f565b602082019050919050565b600060208201905081810360008301526128c481612888565b9050919050565b60006060820190506128e06000830186611c9f565b6128ed6020830185611c9f565b6128fa6040830184611e03565b949350505050565b7f50726f6475637420616c72656164792072656769737465726564000000000000600082015250565b6000612938601a83611bf9565b915061294382612902565b602082019050919050565b600060208201905081810360008301526129678161292b565b9050919050565b600060608201905081810360008301526129888186611c34565b90506129976020830185611c9f565b6129a46040830184611e03565b94935050505056fea26469706673582212205f1f21a71eefc0b89a2cff989de0e617244752de67b245a3179d69b06f86146964736f6c634300081c0033",
  "linkReferences": {},
  "deployedLinkReferences": {}
}